:1000000072C000009EC000009CC000009AC00000AA
:1000100098C0000096C0000094C0000092C000008C
:1000200090C000008EC000008CC000008AC000009C
:1000300088C0000086C0000084C0000082C00000AC
:1000400080C000007EC000007CC000007AC00000BC
:1000500078C0000076C0000074C000003CC40000FE
:1000600070C0000018C200004BC200006AC000004F
:1000700068C0000066C0000064C0000062C00000EC
:1000800060C000005EC000005CC000005AC00000FC
:1000900058C0000056C0000054C0000052C000000C
:1000A00050C000004EC000004CC000004AC000001C
:1000B00048C0000046C0000044C0000042C000002C
:1000C00040C000003EC000003CC000003AC000003C
:1000D00038C0000036C0000034C0000032C000004C
:1000E00030C00000B20211241FBECFEFD1E2DEBF4C
:1000F000CDBF00E00CBF12E0A0E0B2E0EEEDFEE00C
:1001000000E00BBF02C007900D92A43CB107D9F7E5
:1001100024E0A4ECB2E001C01D92AE3EB207E1F7CC
:1001200010E0C6EED0E000E005C022970109FE0114
:100130000BBFABD4C43ED10780E00807B1F7C1D3F1
:10014000CCC65ECF26E040E051EE60E070E084EC8B
:1001500092E041C1CF93DF9300D000D0CDB7DEB79E
:1001600084EC92E036D0892B59F164EC72E0CE0138
:100170000196B8D266E072E0CE01019683D388235F
:1001800019F06CE072E016C067E472E0CE010196EF
:1001900079D3882319F06FE472E00CC060E972E053
:1001A000CE0101966FD3882319F068E972E002C08E
:1001B0006CE972E084EC92E059D2CE010196A9D2AA
:1001C00026960FB6F894DEBF0FBECDBFDF91CF915C
:1001D0000895FC01818D928D891B90E00895FC01AA
:1001E000918D828D981731F0828DE80FF11D858DEC
:1001F00090E008958FEF9FEF0895FC01918D828D1F
:10020000981759F0828DDF01A80FB11D5D968C9172
:10021000928D9F5F928F90E008958FEF9FEF0895EA
:1002200089EA92E0892B39F080E090E0892B19F07F
:1002300090D1811125C080E090E0892B41F080E0D1
:1002400090E0892B21F00E94000081111CC080E009
:1002500090E0892B41F080E090E0892B21F00E9412
:100260000000811113C080E090E0892BA1F080E0B4
:1002700090E0892B81F00E94000081110AC008954E
:100280000E940000D8CF0E940000E1CF0E94000031
:10029000EACF0C9400000895FC01848DDF01A80FC3
:1002A000B11DA35EBE4F2C91848D8F5F848FA68974
:1002B000B7892C93A089B1898C9180648C93938D9C
:1002C000848D981306C00288F389E02D80818F7D8C
:1002D00080830895CF93DF93EC01888D8823C1F04C
:1002E000EA89FB89808185FD05C0A889B9898C913F
:1002F00086FD0EC00FB607FCF5CF808185FFF2CFDB
:10030000A889B9898C9185FFEDCFCE01C5DFE8CFF3
:10031000DF91CF910895CF92DF92FF920F931F93B9
:10032000CF93DF931F92CDB7DEB76C0181E0D6018A
:1003300058968C9358975B969C915B975C968C91A2
:100340005C97981307C05096ED91FC91519780816E
:1003500085FD29C0F601038D0F5FF02EF601848D17
:10036000F81210C00FB607FCF9CFD6015096ED91E8
:10037000FC915197808185FFF1CFC60169838CDFA5
:100380006981ECCF838DE80FF11DE35EFE4F608342
:10039000D6015B960C935B975296ED91FC91539727
:1003A000808180620CC0D6015696ED91FC915797E2
:1003B00060835096ED91FC91519780818064808399
:1003C00081E090E00F90DF91CF911F910F91FF900E
:1003D000DF90CF900895BF92CF92DF92EF92FF927D
:1003E000CF93DF93EC016A017B01B22EE889F98992
:1003F00082E08083411581EE58076105710599F00F
:1004000060E079E08DE390E0A70196011CD32150D4
:100410003109410951095695479537952795211579
:1004200080E1380790F0E889F989108260E874E883
:100430008EE190E0A701960106D3215031094109D0
:1004400051095695479537952795EC85FD8530835D
:10045000EE85FF852083188EEC89FD89B082EA89BC
:10046000FB89808180618083EA89FB898081886043
:100470008083EA89FB89808180688083EA89FB899F
:1004800080818F7D8083DF91CF91FF90EF90DF900F
:10049000CF90BF9008951F920F920FB60F92112424
:1004A0000BB60F922F938F939F93EF93FF93E0914F
:1004B000D402F091D5028081E091DA02F091DB0262
:1004C00082FD11C090818091DD028F5F2091DE025C
:1004D000821751F0E091DD02F0E0EC53FD4F958F73
:1004E0008093DD0201C08081FF91EF919F918F91F8
:1004F0002F910F900BBE0F900FBE0F901F9018956D
:100500001F920F920FB60F9211240BB60F922F93DA
:100510003F934F935F936F937F938F939F93AF938B
:10052000BF93EF93FF9384EC92E0B6DEFF91EF91DF
:10053000BF91AF919F918F917F916F915F914F91FB
:100540003F912F910F900BBE0F900FBE0F901F90F9
:10055000189584EC92E03DDE21E0892B09F420E03F
:10056000822F08951092C7021092C60288EE93E07F
:10057000A0E0B0E08093C8029093C902A093CA02A1
:10058000B093CB0286EA92E09093C5028093C402B6
:1005900085EC90E09093D1028093D00284EC90E0BF
:1005A0009093D3028093D20280EC90E09093D50296
:1005B0008093D40281EC90E09093D7028093D6028E
:1005C00082EC90E09093D9028093D80286EC90E080
:1005D0009093DB028093DA021092DD021092DE0229
:1005E0001092DF021092E0020895CF92DF92EF9214
:1005F000FF920F931F93CF93DF937C016A01EB016E
:1006000000E010E00C151D0571F06991D701ED9126
:10061000FC910190F081E02DC7011995892B19F00B
:100620000F5F1F4FEFCFC801DF91CF911F910F9147
:10063000FF90EF90DF90CF9008956115710581F0E4
:10064000DB010D900020E9F7AD0141505109461B37
:10065000570BDC01ED91FC910280F381E02D1994A0
:1006600080E090E0089562EB72E0E7CF0F931F9374
:10067000CF93DF93EC01E1DF8C01CE01F4DF800F3B
:10068000911FDF91CF911F910F9108950F931F93A9
:10069000CF93DF93EC0169D1688779878A879B873D
:1006A000E881F9810680F781E02DCE01199597FF49
:1006B00014C05BD1088519852A853B85601B710BA9
:1006C000820B930B0C811D812E813F816017710776
:1006D0008207930728F38FEF9FEFDF91CF911F9150
:1006E0000F9108950F931F93CF93DF93EC018B012C
:1006F00064EB72E075D0C801C9DF97FD04C0682FB4
:10070000CE01ADD0F8CFCE01DF91CF911F910F91E7
:100710000895FC018081918154C2CF93DF93EC0155
:1007200088819981009709F04CD2198218821D8224
:100730001C821B821A82DF91CF9108950F931F9321
:10074000CF93DF93EC018B016F5F7F4F888199819D
:10075000C7D2009731F0998388831B830A8381E095
:1007600001C080E0DF91CF911F910F910895CF9349
:10077000DF93EC0188819981892B29F08A819B8103
:100780008617970758F4CE01D9DF882341F08C8172
:100790009D81892B19F4E881F981108281E0DF9134
:1007A000CF910895EF92FF920F931F93CF93DF9312
:1007B000EC017B018A01BA01DADF811103C0CE01AD
:1007C000ACDF06C01D830C83B701888199817ED37D
:1007D000CE01DF91CF911F910F91FF90EF9008957F
:1007E000FC0111821082138212821582148261151B
:1007F000710551F0FB0101900020E9F7AF01415074
:100800005109461B570BCECF0895EF92FF920F93DD
:100810001F93CF93DF93EC017B010C811D81611548
:10082000710511F480E014C04115510581F0040FE9
:10083000151FB8019CDF8823A9F3288139818C8199
:100840009D81B701820F931F41D31D830C8381E0EB
:10085000DF91CF911F910F91FF90EF900895CF936B
:10086000DF931F921F92CDB7DEB769831A8241E0F2
:1008700050E0BE016F5F7F4FC8DF0F900F90DF9198
:10088000CF910895FC0124813581232B31F421E09F
:100890006115710599F0FB0108C0FC01808191810F
:1008A0006115710531F421E0FC018081882331F06C
:1008B00004C003D321E0892B09F020E0822F0895A2
:1008C00008955FD0FDDF3EDCC0E1D1E043DC20973E
:1008D000E9F3A6DCFBCF1F920F920FB60F92112403
:1008E0002F933F938F939F93AF93BF938091E20495
:1008F0009091E304A091E404B091E5043091E10407
:1009000023E0230F2D3720F40196A11DB11D05C052
:1009100026E8230F0296A11DB11D2093E1048093C8
:10092000E2049093E304A093E404B093E50480917F
:10093000E6049091E704A091E804B091E9040196DF
:10094000A11DB11D8093E6049093E704A093E804F1
:10095000B093E904BF91AF919F918F913F912F91F7
:100960000F900FBE0F901F9018952FB7F8946091BD
:10097000E2047091E3048091E4049091E5042FBFB8
:100980000895789484B5826084BD84B5816084BD07
:1009900085B5826085BD85B5816085BDEEE6F0E0F8
:1009A000808181608083E1E8F0E010828081826054
:1009B0008083808181608083E0E8F0E080818160D5
:1009C0008083E1EBF0E0808184608083E0EBF0E005
:1009D000808181608083E1E9F0E0808182608083B2
:1009E000808181608083E0E9F0E0808181608083A4
:1009F000E1EAF0E080818260808380818160808391
:100A0000E0EAF0E0808181608083E1E2F1E08081D2
:100A100082608083808181608083E0E2F1E0808178
:100A200081608083EAE7F0E0808184608083808158
:100A30008260808380818160808380818068808300
:100A40001092C1000895A1E21A2EAA1BBB1BFD0142
:100A50000DC0AA1FBB1FEE1FFF1FA217B307E4079D
:100A6000F50720F0A21BB30BE40BF50B661F771FF5
:100A7000881F991F1A9469F76095709580959095D5
:100A80009B01AC01BD01CF0108950790F691E02DC7
:100A90001994CF93DF938230910510F482E090E0B7
:100AA000E091EC04F091ED0420E030E0A0E0B0E053
:100AB000309739F14081518148175907B8F04817EC
:100AC000590771F482819381109729F013969C93B2
:100AD0008E9312972CC09093ED048093EC0427C062
:100AE0002115310531F04217530718F0A901DB0138
:100AF00001C0EF019A01BD01DF010280F381E02D09
:100B0000D7CF21153105F9F0281B390B24303105D9
:100B100080F48A819B816115710521F0FB0193832B
:100B2000828304C09093ED048093EC04FE0132961E
:100B300044C0FE01E20FF31F8193919322503109CB
:100B4000398328833AC02091EA043091EB04232BA7
:100B500041F420910202309103023093EB04209380
:100B6000EA0420910002309101022115310541F47F
:100B70002DB73EB74091040250910502241B350B5E
:100B8000E091EA04F091EB04E217F307A0F42E1BC6
:100B90003F0B2817390778F0AC014E5F5F4F2417E1
:100BA000350748F04E0F5F1F5093EB044093EA0463
:100BB0008193919302C0E0E0F0E0CF01DF91CF910B
:100BC0000895CF93DF93009709F487C0FC01329713
:100BD00013821282C091EC04D091ED04209781F42D
:100BE00020813181280F391F8091EA049091EB0414
:100BF0008217930779F5F093EB04E093EA046DC054
:100C0000DE0120E030E0AE17BF0750F412964D91A0
:100C10005C9113979D014115510509F1DA01F3CF5C
:100C2000B383A28340815181840F951F8A179B074C
:100C300071F48D919C911197840F951F0296918369
:100C4000808312968D919C911397938382832115B3
:100C5000310529F4F093ED04E093EC043EC0D90192
:100C60001396FC93EE9312974D915D91A40FB51FCF
:100C7000EA17FB0779F480819181840F951F029612
:100C8000D90111969C938E938281938113969C93A4
:100C90008E931297E0E0F0E08A819B81009719F033
:100CA000FE01EC01F9CFCE01029628813981820F35
:100CB000931F2091EA043091EB042817390769F457
:100CC000309729F41092ED041092EC0402C01382C4
:100CD0001282D093EB04C093EA04DF91CF91089580
:100CE0006F927F928F929F92AF92BF92CF92DF923C
:100CF000EF92FF920F931F93CF93DF93EC01CB0101
:100D0000209779F4DF91CF911F910F91FF90EF9091
:100D1000DF90CF90BF90AF909F908F907F906F901B
:100D2000B8CEFE01E60FF71F9E0122503109E217EF
:100D3000F30708F4A8C0D9010D911C91119706176B
:100D40001707B0F00530110508F49BC0A801445006
:100D500051094617570708F494C002501109061BA1
:100D6000170B019311936D937C93CF012ADF89C0F8
:100D70005B01A01AB10A4E01800E911EA091EC04F5
:100D8000B091ED04612C712C60E070E0109709F4D3
:100D900049C0A815B905C9F5ED90FC9011976701F8
:100DA00042E0C40ED11CCA14DB0478F147018A1852
:100DB0009B08640142E0C40ED11C1296BC901297AD
:100DC0001396AC91B5E0CB16D10440F0B282A38368
:100DD00091828082D9018D939C9309C00E5F1F4F31
:100DE0000E0D1F1DF90111830083EB2DFA2F6115E4
:100DF000710531F0DB011396FC93EE93129741C01D
:100E0000F093ED04E093EC043CC06D917C9111975C
:100E10006616770608F43B01BD0112960D90BC9151
:100E2000A02DB4CF6091EA047091EB0468157905A8
:100E3000E9F468167906D0F440910002509101025D
:100E40004115510541F44DB75EB7609104027091B0
:100E50000502461B570BE417F507A8F4F093EB04C3
:100E6000E093EA04F901918380830BC012DE7C01D8
:100E7000009749F0A801BE0117D0CE01A2DEC7013C
:100E800004C0CE0102C080E090E0DF91CF911F91BD
:100E90000F91FF90EF90DF90CF90BF90AF909F9019
:100EA0008F907F906F900895FB01DC0102C001904C
:100EB0000D9241505040D8F70895FB01DC018D910F
:100EC000019080190110D9F3990B0895FB01DC0101
:0E0ED00001900D920020E1F70895F894FFCFF5
:100EDE000000EE0480007374617465007B226C6107
:100EEE006D70223A7B227374617465223A317D2CC7
:100EFE0022636F6F6C6572223A7B22737461746524
:100F0E00223A312C22696E74656E73697669747932
:100F1E00223A33307D7D0073656E736F7273007B82
:100F2E0022636F223A3230302C22636F32223A33F0
:100F3E00302C2274656D7065726174757265223A1B
:100F4E0034302C2268756D6964697479223A3330B5
:100F5E002C227072657373757265223A37307D007C
:100F6E0076657273696F6E00312E31004552524FA5
:100F7E005200000000008B01F502E900FD00EF00B9
:100F8E006A010D0A006E616E00696E66006F76660C
:040F9E00002E000021
:00000001FF
