:100000000C9435000C945D000C945D000C945D0024
:100010000C945D000C945D000C945D000C945D00EC
:100020000C945D000C945D000C945D000C945D00DC
:100030000C945D000C945D000C945D000C945D00CC
:100040000C9433040C945D000C94E1010C941202A6
:100050000C945D000C945D000C945D000C945D00AC
:100060000C945D000C945D00420211241FBECFEF82
:10007000D8E0DEBFCDBF11E0A0E0B1E0EEE5FEE0EC
:1000800002C005900D92A23BB107D9F723E0A2EB85
:10009000B1E001C01D92AC3DB207E1F710E0CAE645
:1000A000D0E004C02297FE010E94E804C836D107C0
:1000B000C9F70E9424040C942D070C94000026E03C
:1000C00040E855E260E070E082EB91E00C947F0143
:1000D000CF93DF9300D000D000D0CDB7DEB782EB56
:1000E00091E00E94A900892B59F162EB71E0CE01E9
:1000F00001960E94270366E071E0CE0101960E94FE
:100100000404882319F06CE071E00AC067E471E030
:10011000CE0101960E940404882339F06FE471E057
:1001200082EB91E00E94E70207C0BE016F5F7F4F44
:1001300082EB91E00E94D502CE0101960E9441031C
:1001400026960FB6F894DEBF0FBECDBFDF91CF91DC
:100150000895FC01818D928D891B90E00895FC012A
:10016000918D828D981731F0828DE80FF11D858D6C
:1001700090E008958FEF9FEF0895FC01918D828D9F
:10018000981759F0828DDF01A80FB11D5D968C91F3
:10019000928D9F5F928F90E008958FEF9FEF08956B
:1001A00088E392E0892B49F080E090E0892B29F0E8
:1001B0000E94380281110C9400000895FC01848D86
:1001C000DF01A80FB11DA35EBE4F2C91848D8F5F00
:1001D000848FA689B7892C93A089B1898C9180647A
:1001E0008C93938D848D981306C00288F389E02D3B
:1001F00080818F7D80830895CF93DF93EC01888D7C
:100200008823C9F0EA89FB89808185FD05C0A8891A
:10021000B9898C9186FD0FC00FB607FCF5CF8081A0
:1002200085FFF2CFA889B9898C9185FFEDCFCE01EA
:100230000E94DE00E7CFDF91CF910895CF92DF9249
:10024000FF920F931F93CF93DF931F92CDB7DEB72B
:100250006C0181E0D60158968C9358975B969C91DF
:100260005B975C968C915C97981307C05096ED91C4
:10027000FC915197808185FD2AC0F601038D0F5FA7
:10028000F02EF601848DF81211C00FB607FCF9CFDD
:10029000D6015096ED91FC915197808185FFF1CF69
:1002A000C60169830E94DE006981EBCF838DE80F70
:1002B000F11DE35EFE4F6083D6015B960C935B9766
:1002C0005296ED91FC915397808180620CC0D601CB
:1002D0005696ED91FC91579760835096ED91FC9165
:1002E000519780818064808381E090E00F90DF915E
:1002F000CF911F910F91FF90DF90CF900895BF9203
:10030000CF92DF92EF92FF92CF93DF93EC016A01DD
:100310007B01B22EE889F98982E08083411581EE64
:10032000580761057105A1F060E079E08DE390E088
:10033000A70196010E94C4042150310941095109C5
:100340005695479537952795211580E1380798F000
:10035000E889F989108260E874E88EE190E0A701ED
:1003600096010E94C4042150310941095109569552
:10037000479537952795EC85FD853083EE85FF857C
:100380002083188EEC89FD89B082EA89FB898081FF
:1003900080618083EA89FB89808188608083EA8923
:1003A000FB89808180688083EA89FB8980818F7DD9
:1003B0008083DF91CF91FF90EF90DF90CF90BF903F
:1003C00008951F920F920FB60F9211242F938F93BF
:1003D0009F93EF93FF93E091C201F091C30180815D
:1003E000E091C801F091C90182FD11C09081809116
:1003F000CB018F5F2091CC01821751F0E091CB01AE
:10040000F0E0EE54FE4F958F8093CB0101C08081C8
:10041000FF91EF919F918F912F910F900FBE0F90B1
:100420001F9018951F920F920FB60F9211242F93C1
:100430003F934F935F936F937F938F939F93AF936C
:10044000BF93EF93FF9382EB91E00E94DE00FF9158
:10045000EF91BF91AF919F918F917F916F915F913C
:100460004F913F912F910F900FBE0F901F901895B5
:1004700082EB91E00E94A90021E0892B09F420E0A1
:10048000822F08951092B5011092B40188EE93E086
:10049000A0E0B0E08093B6019093B701A093B801BB
:1004A000B093B90184E991E09093B3018093B201D4
:1004B00085EC90E09093BF018093BE0184EC90E0C6
:1004C0009093C1018093C00180EC90E09093C301B0
:1004D0008093C20181EC90E09093C5018093C401A8
:1004E00082EC90E09093C7018093C60186EC90E087
:1004F0009093C9018093C8011092CB011092CC0156
:100500001092CD011092CE010895CF92DF92EF921A
:10051000FF920F931F93CF93DF937C016A01EB014E
:1005200000E010E00C151D0571F06991D701ED9107
:10053000FC910190F081E02DC7010995892B19F0FC
:100540000F5F1F4FEFCFC801DF91CF911F910F9128
:10055000FF90EF90DF90CF9008956115710581F0C5
:10056000DB010D900020E9F7AD0141505109461B18
:10057000570BDC01ED91FC910280F381E02D099491
:1005800080E090E00895DC01ED91FC91DB01149690
:100590004D915C9115976D917C910280F381E02DD6
:1005A000099460EA71E00C94AD020F931F93CF930E
:1005B000DF93EC010E94C3028C01CE010E94D102A4
:1005C000800F911FDF91CF911F910F9108950F938D
:1005D0001F93CF93DF93EC010E94AD028C01CE01FB
:1005E0000E94D102800F911FDF91CF911F910F9137
:1005F00008950F931F93CF93DF93EC010E947D0426
:10060000688779878A879B87E881F9810680F781E7
:10061000E02DCE01099597FF15C00E947D04088545
:1006200019852A853B85601B710B820B930B0C810E
:100630001D812E813F81601771078207930720F388
:100640008FEF9FEFDF91CF911F910F9108950F933F
:100650001F93CF93DF93EC018B0162EA71E00E945C
:10066000AF03C8010E94F90297FD05C0682FCE01B3
:100670000E94F103F6CFCE01DF91CF911F910F9130
:100680000895FC01808191810C948405CF93DF93C0
:10069000EC0188819981009711F00E9484051982EC
:1006A00018821D821C821B821A82DF91CF910895CD
:1006B0000F931F93CF93DF93EC018B016F5F7F4FFD
:1006C000888199810E941306009731F0998388836D
:1006D0001B830A8381E001C080E0DF91CF911F91ED
:1006E0000F910895CF93DF93EC0188819981892B35
:1006F00029F08A819B818617970760F4CE010E94BA
:100700005803882341F08C819D81892B19F4E8815D
:10071000F981108281E0DF91CF910895EF92FF92ED
:100720000F931F93CF93DF93EC017B018A01BA01F2
:100730000E947203811104C0CE010E94460307C0CB
:100740001D830C83B701888199810E94EF06CE0139
:10075000DF91CF911F910F91FF90EF900895FC01D1
:100760001182108213821282158214826115710522
:1007700059F0FB0101900020E9F7AF014150510908
:10078000461B570B0C948E030895EF92FF920F9324
:100790001F93CF93DF93EC017B010C811D816115C9
:1007A000710511F480E016C04115510591F0040F58
:1007B000151FB8010E9472038823A1F32881398193
:1007C0008C819D81B701820F931F0E94EF061D83CC
:1007D0000C8381E0DF91CF911F910F91FF90EF90FB
:1007E0000895CF93DF9300D0CDB7DEB769831A8227
:1007F00041E050E0BE016F5F7F4F0E94C5030F9044
:100800000F90DF91CF910895FC0124813581232B36
:1008100031F421E061157105A1F0FB0108C0FC0174
:10082000808191816115710531F421E0FC018081A5
:10083000882339F005C00E94E60621E0892B09F0E3
:1008400020E0822F089508950E9489040E942304C5
:100850000E945F00C0EDD0E00E9468002097E1F3A5
:100860000E94D000F9CF1F920F920FB60F92112461
:100870002F933F938F939F93AF93BF938091D00318
:100880009091D103A091D203B091D3033091CF03C3
:1008900023E0230F2D3720F40196A11DB11D05C0C3
:1008A00026E8230F0296A11DB11D2093CF0380934C
:1008B000D0039093D103A093D203B093D30380913C
:1008C000D4039091D503A091D603B091D70301969C
:1008D000A11DB11D8093D4039093D503A093D6039B
:1008E000B093D703BF91AF919F918F913F912F917B
:1008F0000F900FBE0F901F9018952FB7F89460912E
:10090000D0037091D1038091D2039091D3032FBF74
:100910000895789484B5826084BD84B5816084BD77
:1009200085B5826085BD85B5816085BDEEE6F0E068
:10093000808181608083E1E8F0E0108280818260C4
:100940008083808181608083E0E8F0E08081816045
:100950008083E1EBF0E0808184608083E0EBF0E075
:10096000808181608083EAE7F0E080818460808319
:1009700080818260808380818160808380818068C3
:1009800080831092C1000895A1E21A2EAA1BBB1BFE
:10099000FD010DC0AA1FBB1FEE1FFF1FA217B3074B
:1009A000E407F50720F0A21BB30BE40BF50B661F61
:1009B000771F881F991F1A9469F760957095809525
:1009C00090959B01AC01BD01CF010895EE0FFF1F73
:1009D0000590F491E02D0994CF93DF938230910537
:1009E00010F482E090E0E091DA03F091DB0320E084
:1009F00030E0A0E0B0E0309739F1408151814817F4
:100A00005907B8F04817590771F4828193811097FC
:100A100029F013969C938E9312972CC09093DB032E
:100A20008093DA0327C02115310531F042175307AF
:100A300018F0A901DB0101C0EF019A01BD01DF013E
:100A40000280F381E02DD7CF21153105F9F0281B65
:100A5000390B2430310580F48A819B816115710541
:100A600021F0FB019383828304C09093DB03809386
:100A7000DA03FE01329644C0FE01E20FF31F8193B8
:100A8000919322503109398328833AC02091D803A9
:100A90003091D903232B41F42091020130910301BD
:100AA0003093D9032093D8032091000130910101A4
:100AB0002115310541F42DB73EB740910401509105
:100AC0000501241B350BE091D803F091D903E217FF
:100AD000F307A0F42E1B3F0B2817390778F0AC0161
:100AE0004E5F5F4F2417350748F04E0F5F1F50933E
:100AF000D9034093D8038193919302C0E0E0F0E0E2
:100B0000CF01DF91CF910895CF93DF93009709F440
:100B100087C0FC01329713821282C091DA03D09110
:100B2000DB03209781F420813181280F391F8091C8
:100B3000D8039091D9038217930779F5F093D903DD
:100B4000E093D8036DC0DE0120E030E0AE17BF07B0
:100B500050F412964D915C9113979D0141155105EA
:100B600009F1DA01F3CFB383A28340815181840F6D
:100B7000951F8A179B0771F48D919C911197840F93
:100B8000951F02969183808312968D919C91139765
:100B9000938382832115310529F4F093DB03E093DD
:100BA000DA033EC0D9011396FC93EE9312974D9150
:100BB0005D91A40FB51FEA17FB0779F4808191813D
:100BC000840F951F0296D90111969C938E93828172
:100BD000938113969C938E931297E0E0F0E08A81C4
:100BE0009B81009719F0FE01EC01F9CFCE0102962E
:100BF00028813981820F931F2091D8033091D90326
:100C00002817390769F4309729F41092DB03109202
:100C1000DA0302C013821282D093D903C093D8039F
:100C2000DF91CF910895A0E0B0E0E9E1F6E00C9407
:100C3000FA06EC01CB01209719F40E94EC04B8C02D
:100C4000FE01E60FF71F9E0122503109E217F3075C
:100C500008F4ACC0D9010D911C9111970617170724
:100C6000B8F00530110508F49FC0A801445051099F
:100C70004617570708F498C002501109061B170BB6
:100C8000019311936D937C93CF010E9484058CC0D6
:100C90005B01A01AB10A4E01800E911EA091DA03E9
:100CA000B091DB03612C712C60E070E0109709F4C7
:100CB00049C0A815B905C9F5ED90FC9011976701D9
:100CC00042E0C40ED11CCA14DB0478F147018A1833
:100CD0009B08640142E0C40ED11C1296BC9012978E
:100CE0001396AC91B5E0CB16D10440F0B282A38349
:100CF00091828082D9018D939C9309C00E5F1F4F12
:100D00000E0D1F1DF90111830083EB2DFA2F6115C4
:100D1000710531F0DB011396FC93EE93129744C0FA
:100D2000F093DB03E093DA033FC06D917C91119760
:100D30006616770608F43B01BD0112960D90BC9132
:100D4000A02DB4CF6091D8037091D90368157905AF
:100D5000E9F468167906D0F4409100015091010140
:100D60004115510541F44DB75EB760910401709192
:100D70000501461B570BE417F507C0F4F093D903A0
:100D8000E093D803F901918380830EC00E94EC04A4
:100D90007C01009759F0A801BE010E94DD06CE013A
:100DA0000E948405C70104C0CE0102C080E090E02B
:100DB000CDB7DEB7EEE00C941607FB01DC0102C0F4
:100DC00001900D9241505040D8F70895FB01DC018D
:100DD0008D91019080190110D9F3990B0895FB01B1
:100DE000DC0101900D920020E1F708952F923F92CF
:100DF0004F925F926F927F928F929F92AF92BF922B
:100E0000CF92DF92EF92FF920F931F93CF93DF93D6
:100E1000CDB7DEB7CA1BDB0B0FB6F894DEBF0FBE33
:100E2000CDBF09942A88398848885F846E847D8480
:100E30008C849B84AA84B984C884DF80EE80FD8082
:100E40000C811B81AA81B981CE0FD11D0FB6F894F8
:0E0E5000DEBF0FBECDBFED010895F894FFCFB9
:100E5E000000DC0380007374617465007B226C619A
:100E6E006D70223A7B227374617465223A317D2C47
:100E7E0022636F6F6C6572223A7B227374617465A4
:100E8E00223A312C22696E74656E736976697479B3
:100E9E00223A33307D7D0073656E736F7273007B03
:100EAE0022636F223A3230302C22636F32223A3371
:100EBE00302C2274656D7065726174757265223A9C
:100ECE0034302C2268756D6964697479223A333036
:100EDE002C227072657373757265223A37307D00FD
:100EEE00000000001E018502A900BD00AF00FC003D
:100EFE000D0A006E616E00696E66006F7666002EDA
:020F0E000000E1
:00000001FF
